:020000020000FC
:020000000DC031
:0200080038C0FE
:0200120024C008
:0200160061C0C7
:10001A0080C004E00EBF0FE50DBF00E000BD03E3A2
:10002A0009B908ED0AB906E800BD0FEF01BB05E002
:10003A0003BF07E005BD01E409BF08BF8FEF82BF18
:10004A009FEF94BDA0E6B0E040E060E070E07894F5
:10005A00FFCFF89440FD09C041FD04C0EEE6F2E08E
:10006A001FD003C0C4E7D0E012D082BF789418959D
:10007A00F89440FD09C042FD04C0E8E7F2E010D060
:10008A0003C0C8E8D0E003D094BD7894189539919C
:10009A007395303021F05D9BFECF3CB9F8CF0895BF
:1000AA003591303021F05D9BFECF3CB9F9CF0895F0
:1000BA005D9BFECF1CB9089510E000E0382F292F70
:1000CA00320F101FF5DF132FF3DF4E7F7894189548
:1000DA00F8945F9BFDCF41603CB13D3649F0333720
:1000EA0059F33D9363953CB93D30C9F1789418951D
:1000FA00E2E8F2E0D5DFE8E9F2E0D2DFEEEAF2E0A8
:10010A00CFDFE8ECF2E0CCDFE2EEF2E0C9DF789490
:10011A001895F8945D9BFDCF789418955F9BFECF58
:10012A003CB13D3021F03CB93D936395F7CF30E0C7
:10013A003D9363950895ECE4F3E0B2DF72D0EEDF0D
:10014A0070E0C4E7D0E06DD03D9163953993739523
:10015A003030D1F766D06BD04E7F4260189561D0AF
:10016A003D9163953133B9F0323319F1333341F0AC
:10017A00343309F3353359F14E7F53D078941895B7
:10018A00E4E3F3E08DDF8FEF82BF9FEF94BD4E7FF4
:10019A0048D078941895ECEFF2E082DF42D070E014
:1001AA004CD050E03ED027D0852F4E7F3AD078945D
:1001BA001895E8E1F3E074DF34D070E03ED050E007
:1001CA0030D019D0952F4E7F2CD078941895ECE525
:1001DA00F3E066DF26D0A2DF70E0C8E8D0E021D0E5
:1001EA003D916395399373953030D1F71AD01FD06A
:1001FA004E7F44601895743078F53D9163957A95F1
:10020A00272F0AE011E0203021F0109F2A95102DA7
:10021A00FACF139F102D510FF8F0703009F0EBCF81
:10022A000895603019F03E916A95FBCF08957030B9
:10023A0019F03A917A95FBCF08955F9BFECF3CB1B6
:10024A003D3049F03A3340F43CB900E3301B3D936A
:10025A0063957395F2CF0895ECE6F3E021DF4E7FC4
:10026A00E0DF189570696E675C6E5C720000706FF3
:10027A006E675C6E5C720000312E204368616E67A7
:10028A00652054494D45525F315C6E5C7200322ED6
:10029A00204368616E67652054494D45525F325C60
:1002AA006E5C7200332E2052455345542054494DFA
:1002BA0045525320312C20325C6E5C720000342E81
:1002CA00204368616E67652054494D45525F315F2E
:1002DA005354525C6E5C7200352E204368616E671F
:1002EA00652054494D45525F325F5354525C6E5CEF
:1002FA007200547970652054494D45525F315F4907
:10030A004E54455256414C3A5C6E5C720000547928
:10031A0070652054494D45525F325F494E544552EB
:10032A0056414C3A5C6E5C72000052455345544942
:10033A004E472054494D4552532E2E2E3A5C6E5C40
:10034A00720054797065205354525F313A5C6E5C86
:10035A00720054797065205354525F323A5C6E5C75
:08036A0072004552524F52008F
:00000001FF
