:020000020000FC
:020000000DC031
:0200080027C00F
:020012002CC000
:0200160034C0F4
:10001A0037C004E00EBF0FE50DBF00E000BD03E3EB
:10002A0009B908ED0AB906E800BD0FEF01BB05E002
:10003A0005BD03BF01E409BF08BF5FEF62E0561BBD
:10004A0052BF5FEF61E0561B54BD7894FFCFF8941E
:10005A00E2EBF0E01AD05FEF62E0561B52BF7894F1
:10006A001895F894ECEBF0E010D05FEF61E0561BC6
:10007A0054BD78941895F8945F9BC8CF78941895D6
:10008A00F8945D9BF8CF789418953591303021F02B
:10009A005D9BFECF3CB9F9CF18955D9BFECF52E030
:1000AA0061E0561B5CB9189570696E675C6E5C728C
:0C00BA000000706F6E675C6E5C720000EE
:00000001FF
